{
  "contractName": "HiddenToken",
  "abi": [
    {
      "constant": false,
      "inputs": [
        {
          "name": "a",
          "type": "uint256[2]"
        },
        {
          "name": "a_p",
          "type": "uint256[2]"
        },
        {
          "name": "b",
          "type": "uint256[2][2]"
        },
        {
          "name": "b_p",
          "type": "uint256[2]"
        },
        {
          "name": "c",
          "type": "uint256[2]"
        },
        {
          "name": "c_p",
          "type": "uint256[2]"
        },
        {
          "name": "h",
          "type": "uint256[2]"
        },
        {
          "name": "k",
          "type": "uint256[2]"
        },
        {
          "name": "input",
          "type": "uint256[2]"
        }
      ],
      "name": "verifyTx",
      "outputs": [
        {
          "name": "r",
          "type": "bool"
        }
      ],
      "payable": false,
      "stateMutability": "nonpayable",
      "type": "function"
    },
    {
      "inputs": [
        {
          "name": "members",
          "type": "bytes32[]"
        },
        {
          "name": "amount",
          "type": "uint256"
        }
      ],
      "payable": false,
      "stateMutability": "nonpayable",
      "type": "constructor"
    },
    {
      "anonymous": false,
      "inputs": [
        {
          "indexed": false,
          "name": "s",
          "type": "string"
        }
      ],
      "name": "SendEvent",
      "type": "event"
    },
    {
      "anonymous": false,
      "inputs": [
        {
          "indexed": false,
          "name": "s",
          "type": "string"
        }
      ],
      "name": "Verified",
      "type": "event"
    },
    {
      "constant": false,
      "inputs": [
        {
          "name": "userAddress",
          "type": "bytes32"
        },
        {
          "name": "amount",
          "type": "uint256"
        }
      ],
      "name": "generateTokens",
      "outputs": [
        {
          "name": "",
          "type": "uint256"
        }
      ],
      "payable": false,
      "stateMutability": "nonpayable",
      "type": "function"
    },
    {
      "constant": true,
      "inputs": [
        {
          "name": "userAddress",
          "type": "bytes32"
        }
      ],
      "name": "getBalance",
      "outputs": [
        {
          "name": "",
          "type": "uint256"
        }
      ],
      "payable": false,
      "stateMutability": "view",
      "type": "function"
    },
    {
      "constant": false,
      "inputs": [
        {
          "name": "userAddress",
          "type": "bytes32"
        },
        {
          "name": "amount",
          "type": "uint256"
        }
      ],
      "name": "setBalance",
      "outputs": [
        {
          "name": "",
          "type": "uint256"
        }
      ],
      "payable": false,
      "stateMutability": "nonpayable",
      "type": "function"
    },
    {
      "constant": false,
      "inputs": [
        {
          "name": "to",
          "type": "uint256"
        },
        {
          "name": "amount",
          "type": "uint256"
        },
        {
          "name": "a",
          "type": "uint256[2]"
        },
        {
          "name": "a_p",
          "type": "uint256[2]"
        },
        {
          "name": "b",
          "type": "uint256[2][2]"
        },
        {
          "name": "b_p",
          "type": "uint256[2]"
        },
        {
          "name": "c",
          "type": "uint256[2]"
        },
        {
          "name": "c_p",
          "type": "uint256[2]"
        },
        {
          "name": "h",
          "type": "uint256[2]"
        },
        {
          "name": "k",
          "type": "uint256[2]"
        },
        {
          "name": "input",
          "type": "uint256[2]"
        }
      ],
      "name": "sendToken",
      "outputs": [
        {
          "name": "",
          "type": "bool"
        }
      ],
      "payable": false,
      "stateMutability": "nonpayable",
      "type": "function"
    }
  ],
  "bytecode": "0x60806040523480156200001157600080fd5b506040516200264038038062002640833981018060405262000037919081019062000247565b60006200006d8360008151811015156200004d57fe5b9060200190602002015183620000c7640100000000026401000000009004565b50600090505b8251811015620000be5782818151811015156200008c57fe5b906020019060200201516000808381526020019081526020016000208160001916905550808060010191505062000073565b505050620003be565b60007f01929b1546ac5c8cbd09f19de437245776c852d26202ac70ef8ede5dbb2e29b3604051620000f89062000331565b60405180910390a160008211151562000148576040517f08c379a00000000000000000000000000000000000000000000000000000000081526004016200013f906200030f565b60405180910390fd5b816001600085600019166000191681526020019081526020016000208190555060016000846000191660001916815260200190815260200160002054905092915050565b600082601f8301121515620001a057600080fd5b8151620001b7620001b18262000381565b62000353565b91508181835260208401935060208101905083856020840282011115620001dd57600080fd5b60005b83811015620002115781620001f688826200021b565b845260208401935060208301925050600181019050620001e0565b5050505092915050565b6000620002298251620003aa565b905092915050565b60006200023f8251620003b4565b905092915050565b600080604083850312156200025b57600080fd5b600083015167ffffffffffffffff8111156200027657600080fd5b62000284858286016200018c565b9250506020620002978582860162000231565b9150509250929050565b6000601d82527f416d6f756e74206d7573742062652067726561746572207468616e20300000006020830152604082019050919050565b6000601c82527f42616c616e636520736574746564207375636365737366756c6c7921000000006020830152604082019050919050565b600060208201905081810360008301526200032a81620002a1565b9050919050565b600060208201905081810360008301526200034c81620002d8565b9050919050565b6000604051905081810181811067ffffffffffffffff821117156200037757600080fd5b8060405250919050565b600067ffffffffffffffff8211156200039957600080fd5b602082029050602081019050919050565b6000819050919050565b6000819050919050565b61227280620003ce6000396000f30060806040526004361061006d576000357c0100000000000000000000000000000000000000000000000000000000900463ffffffff1680636b4d06db1461007257806372e31dd0146100af5780638e739461146100ec5780639092737614610129578063fe01ff6214610166575b600080fd5b34801561007e57600080fd5b5061009960048036036100949190810190611d4b565b6101a3565b6040516100a69190612160565b60405180910390f35b3480156100bb57600080fd5b506100d660048036036100d19190810190611d4b565b61026c565b6040516100e39190612160565b60405180910390f35b3480156100f857600080fd5b50610113600480360361010e9190810190611d22565b61032c565b6040516101209190612160565b60405180910390f35b34801561013557600080fd5b50610150600480360361014b9190810190611d87565b610351565b60405161015d9190612065565b60405180910390f35b34801561017257600080fd5b5061018d60048036036101889190810190611c57565b610552565b60405161019a9190612065565b60405180910390f35b60007f01929b1546ac5c8cbd09f19de437245776c852d26202ac70ef8ede5dbb2e29b36040516101d290612140565b60405180910390a160008211151561021f576040517f08c379a0000000000000000000000000000000000000000000000000000000008152600401610216906120e0565b60405180910390fd5b816001600085600019166000191681526020019081526020016000206000828254019250508190555060016000846000191660001916815260200190815260200160002054905092915050565b60007f01929b1546ac5c8cbd09f19de437245776c852d26202ac70ef8ede5dbb2e29b360405161029b90612100565b60405180910390a16000821115156102e8576040517f08c379a00000000000000000000000000000000000000000000000000000000081526004016102df906120e0565b60405180910390fd5b816001600085600019166000191681526020019081526020016000208190555060016000846000191660001916815260200190815260200160002054905092915050565b6000600160008360001916600019168152602001908152602001600020549050919050565b60008060007f01929b1546ac5c8cbd09f19de437245776c852d26202ac70ef8ede5dbb2e29b360405161038390612120565b60405180910390a1600115156103a08d8d8d8d8d8d8d8d8d610552565b15151415156103ae57600080fd5b6000808560006002811015156103c057fe5b602002015181526020019081526020016000205491506000808f81526020019081526020016000205490508d8460006002811015156103fb57fe5b602002015114151515610443576040517f08c379a000000000000000000000000000000000000000000000000000000000815260040161043a90612080565b60405180910390fd5b60008d111515610488576040517f08c379a000000000000000000000000000000000000000000000000000000000815260040161047f906120a0565b60405180910390fd5b60008d6001600085600019166000191681526020019081526020016000205403101515156104eb576040517f08c379a00000000000000000000000000000000000000000000000000000000081526004016104e2906120c0565b60405180910390fd5b8c600160008460001916600019168152602001908152602001600020600082825403925050819055508c600160008360001916600019168152602001908152602001600020600082825401925050819055506001925050509b9a5050505050505050505050565b600061055c6118da565b6060600060408051908101604052808e600060028110151561057a57fe5b602002015181526020018e600160028110151561059357fe5b6020020151815250836000018190525060408051908101604052808d60006002811015156105bd57fe5b602002015181526020018d60016002811015156105d657fe5b60200201518152508360200181905250604080519081016040528060408051908101604052808e600060028110151561060b57fe5b6020020151600060028110151561061e57fe5b602002015181526020018e600060028110151561063757fe5b6020020151600160028110151561064a57fe5b6020020151815250815260200160408051908101604052808e600160028110151561067157fe5b6020020151600060028110151561068457fe5b602002015181526020018e600160028110151561069d57fe5b602002015160016002811015156106b057fe5b6020020151815250815250836040018190525060408051908101604052808b60006002811015156106dd57fe5b602002015181526020018b60016002811015156106f657fe5b6020020151815250836060018190525060408051908101604052808a600060028110151561072057fe5b602002015181526020018a600160028110151561073957fe5b60200201518152508360800181905250604080519081016040528089600060028110151561076357fe5b6020020151815260200189600160028110151561077c57fe5b60200201518152508360a0018190525060408051908101604052808860006002811015156107a657fe5b602002015181526020018860016002811015156107bf57fe5b60200201518152508360e0018190525060408051908101604052808760006002811015156107e957fe5b6020020151815260200187600160028110151561080257fe5b60200201518152508360c0018190525060026040519080825280602002602001820160405280156108425781602001602082028038833980820191505090505b509150600090505b600281101561088f57848160028110151561086157fe5b6020020151828281518110151561087457fe5b9060200190602002018181525050808060010191505061084a565b600061089b83856108bf565b14156108aa57600193506108af565b600093505b5050509998505050505050505050565b60006108c9611950565b6108d16119c0565b60006108db610af6565b92508260e001515160018751011415156108f457600080fd5b60408051908101604052806000815260200160008152509150600090505b8551811015610972576109638261095e8560e001516001850181518110151561093757fe5b90602001906020020151898581518110151561094f57fe5b90602001906020020151611137565b6111d3565b91508080600101915050610912565b610998828460e00151600081518110151561098957fe5b906020019060200201516111d3565b91506109c1856000015184600001516109b48860200151611290565b6109bc61132b565b6113f5565b15156109d05760019350610aed565b6109f7836020015186604001516109ea8860600151611290565b6109f261132b565b6113f5565b1515610a065760029350610aed565b610a2d85608001518460400151610a208860a00151611290565b610a2861132b565b6113f5565b1515610a3c5760039350610aed565b610a888560c001518460600151610a6c610a6786610a628b600001518c608001516111d3565b6111d3565b611290565b8660a00151610a7e8860800151611290565b8a60400151611500565b1515610a975760049350610aed565b610ad9610aa88387600001516111d3565b8660400151610aba8860e00151611290565b8660c00151610acc8a60800151611290565b610ad461132b565b611500565b1515610ae85760059350610aed565b600093505b50505092915050565b610afe611950565b604080519081016040528060408051908101604052807f23204396c69bfea3eacde71f89df35e2b4cb0c41308fc757b2e02edcc383699381526020017f278664016aa3021b8db8d378850361d6c3bbf8aec1ac6aa9758b21d019db5453815250815260200160408051908101604052807f2db07907780db6b101115ad6facb687fdcf82d1c48881380340f717eb34fcf7681526020017f176bfceccc221327d570fd1598f75e75058c417d072feb3b50d659101bfe9bdb815250815250816000018190525060408051908101604052807f1a3c597f2ba4ea32f0d7851f0a203484ae351c80f6b34b5f97dcf28f8cf4dd5c81526020017f047448fc26fe62642199617941899399f71d23559585c2e76212016fc6538cf98152508160200181905250604080519081016040528060408051908101604052807f20db76fe758236b1e91e3d1b9eecff1fa67f833a850e379bf5da91c97b03c52381526020017f2fa1fa694766fc2aae5b37965246b70ceab980f987033a7084191f474dddae60815250815260200160408051908101604052807f05e3cae10e6ccc8718f50f67624ce84b6c1d153c7ad14ee93f783cb2a205a5b781526020017f2bdbca7fa7d44077e21c649fb8537adf4e44de14db46a90bdf78cfc732a1503e8152508152508160400181905250604080519081016040528060408051908101604052807f22f10f37c440a410a2e342734884ed7611323d44f4fe1d9e14a87bdaf561587e81526020017f066223cffe1deeabf2dfb868089c9b4c3d518609e0564c5a911ccbb0d9aed570815250815260200160408051908101604052807f06910b7d2e0dc8c600c676108e79733bcc496116d5d6b9ed358968efc14f254d81526020017f235bba1c8c5aec39d9bfcc57e0cad377ad373b915547a5efe355726910cf013f815250815250816060018190525060408051908101604052807f037cfca24eafc7b668fc0e009ff1b846a5b8ed2977a8ec3583c2279abed103ec81526020017f137532bd454ef5c2e86702facc5f87473e1d4060a37f1db95a506e805c641ac98152508160800181905250604080519081016040528060408051908101604052807f0ac9a2947f32a516778897147e385bafb64e22eaa335aa53f438e7b60fab1cb481526020017f2d884fee71ff48865d2c3a353e9823eedcb2c7fa4f7ad610d38bcc926817c3e2815250815260200160408051908101604052807f281eda5c65fe82da2e5d9579d1e6c3234968e3f0a8c362f502d9d637536cefed81526020017f235017c33f2cf05d949686b5cf5ec94569c1ec67ed207192fbd95e9c4c2c47138152508152508160a00181905250604080519081016040528060408051908101604052807f1a45af579b7e23abfd69a234b285fdaae7d3eb9296c3ce6a310692c45db868a781526020017f26299b44ae2a245b04f31aa9c25c04b82573a1d05c0fb0d1ecbf793da584b031815250815260200160408051908101604052807f0c9e58b9a8de42bb349eb265c3f7a64f942394baae282c445c52b0867a94c1ec81526020017f249b87a1d96cbfb31095e4a5613efa8f7b28d66181f1d184c87b6d0abb84debd8152508152508160c001819052506003604051908082528060200260200182016040528015610fcc57816020015b610fb96119da565b815260200190600190039081610fb15790505b508160e0018190525060408051908101604052807f1be77ec6f42ac31bf5fbc3d92a9aa00c862edfbeb3d4fdd6222473302df85dea81526020017f262fc2bb66bf40fbe634230193207ffd58b365e2ceed00a6ec3451ef6108810b8152508160e00151600081518110151561103d57fe5b9060200190602002018190525060408051908101604052807f1dd647395b426fab98ca7f065faedd111507d06b9f49083f88424319e223189e81526020017f15695e2f4f6c80318d3cfe4487c0083e63f02f2e187dc993c4ccd157c72671ae8152508160e0015160018151811015156110b257fe5b9060200190602002018190525060408051908101604052807f1835f577582dfa1d26d3d45580fcb901a71b7b209d641334f3ef608dfaa9af1481526020017f1abf1476ea34097e85e8f77754fe19efba62e1dd8e14bf348892d0aefd746c0b8152508160e00151600281518110151561112757fe5b9060200190602002018190525090565b61113f6119c0565b6111476119f4565b6000846000015182600060038110151561115d57fe5b602002018181525050846020015182600160038110151561117a57fe5b6020020181815250508382600260038110151561119357fe5b602002018181525050606083608084600060076107d05a03f1905080600081146111bc576111be565bfe5b508015156111cb57600080fd5b505092915050565b6111db6119c0565b6111e3611a17565b600084600001518260006004811015156111f957fe5b602002018181525050846020015182600160048110151561121657fe5b602002018181525050836000015182600260048110151561123357fe5b602002018181525050836020015182600360048110151561125057fe5b60200201818152505060608360c084600060066107d05a03f1905080600081146112795761127b565bfe5b5080151561128857600080fd5b505092915050565b6112986119c0565b60007f30644e72e131a029b85045b68181585d97816a916871ca8d3c208c16d87cfd479050600083600001511480156112d5575060008360200151145b156112f85760408051908101604052806000815260200160008152509150611325565b60408051908101604052808460000151815260200182856020015181151561131c57fe5b06830381525091505b50919050565b611333611a3a565b604080519081016040528060408051908101604052807f198e9393920d483a7260bfb731fb5d25f1aa493335a9e71297e485b7aef312c281526020017f1800deef121f1e76426a00665e5c4479674322d4f75edadd46debd5cd992f6ed815250815260200160408051908101604052807f090689d0585ff075ec9e99ad690c3395bc4b313370b38ef355acdadcd122975b81526020017f12c85ea5db8c6deb4aab71808dcb408fe3d1e7690c43d37b4ce6cc0166fa7daa815250815250905090565b6000606080600260405190808252806020026020018201604052801561143557816020015b6114226119da565b81526020019060019003908161141a5790505b509150600260405190808252806020026020018201604052801561147357816020015b611460611a61565b8152602001906001900390816114585790505b5090508682600081518110151561148657fe5b90602001906020020181905250848260018151811015156114a357fe5b90602001906020020181905250858160008151811015156114c057fe5b90602001906020020181905250838160018151811015156114dd57fe5b906020019060200201819052506114f48282611647565b92505050949350505050565b6000606080600360405190808252806020026020018201604052801561154057816020015b61152d6119da565b8152602001906001900390816115255790505b509150600360405190808252806020026020018201604052801561157e57816020015b61156b611a61565b8152602001906001900390816115635790505b5090508882600081518110151561159157fe5b90602001906020020181905250868260018151811015156115ae57fe5b90602001906020020181905250848260028151811015156115cb57fe5b90602001906020020181905250878160008151811015156115e857fe5b906020019060200201819052508581600181518110151561160557fe5b906020019060200201819052508381600281518110151561162257fe5b906020019060200201819052506116398282611647565b925050509695505050505050565b600080600060606000611658611a88565b60008751895114151561166a57600080fd5b88519550600686029450846040519080825280602002602001820160405280156116a35781602001602082028038833980820191505090505b509350600092505b858310156118805788838151811015156116c157fe5b906020019060200201516000015184600060068602018151811015156116e357fe5b906020019060200201818152505088838151811015156116ff57fe5b9060200190602002015160200151846001600686020181518110151561172157fe5b9060200190602002018181525050878381518110151561173d57fe5b9060200190602002015160000151600060028110151561175957fe5b6020020151846002600686020181518110151561177257fe5b9060200190602002018181525050878381518110151561178e57fe5b906020019060200201516000015160016002811015156117aa57fe5b602002015184600360068602018151811015156117c357fe5b906020019060200201818152505087838151811015156117df57fe5b906020019060200201516020015160006002811015156117fb57fe5b6020020151846004600686020181518110151561181457fe5b9060200190602002018181525050878381518110151561183057fe5b9060200190602002015160200151600160028110151561184c57fe5b6020020151846005600686020181518110151561186557fe5b906020019060200201818152505082806001019350506116ab565b6020826020870260208701600060086107d05a03f1905080600081146118a5576118a7565bfe5b508015156118b457600080fd5b60008260006001811015156118c557fe5b60200201511415965050505050505092915050565b610240604051908101604052806118ef6119da565b81526020016118fc6119da565b8152602001611909611a61565b81526020016119166119da565b81526020016119236119da565b81526020016119306119da565b815260200161193d6119da565b815260200161194a6119da565b81525090565b61032060405190810160405280611965611a61565b81526020016119726119da565b815260200161197f611a61565b815260200161198c611a61565b81526020016119996119da565b81526020016119a6611a61565b81526020016119b3611a61565b8152602001606081525090565b604080519081016040528060008152602001600081525090565b604080519081016040528060008152602001600081525090565b606060405190810160405280600390602082028038833980820191505090505090565b608060405190810160405280600490602082028038833980820191505090505090565b608060405190810160405280611a4e611aab565b8152602001611a5b611aab565b81525090565b608060405190810160405280611a75611aab565b8152602001611a82611aab565b81525090565b602060405190810160405280600190602082028038833980820191505090505090565b6040805190810160405280600290602082028038833980820191505090505090565b600082601f8301121515611ae057600080fd5b6002611af3611aee826121a8565b61217b565b91508183856040840282011115611b0957600080fd5b60005b83811015611b395781611b1f8882611b43565b845260208401935060408301925050600181019050611b0c565b5050505092915050565b600082601f8301121515611b5657600080fd5b6002611b69611b64826121ca565b61217b565b91508183856020840282011115611b7f57600080fd5b60005b83811015611baf5781611b958882611c43565b845260208401935060208301925050600181019050611b82565b5050505092915050565b600082601f8301121515611bcc57600080fd5b6002611bdf611bda826121ec565b61217b565b91508183856020840282011115611bf557600080fd5b60005b83811015611c255781611c0b8882611c43565b845260208401935060208301925050600181019050611bf8565b5050505092915050565b6000611c3b8235612224565b905092915050565b6000611c4f823561222e565b905092915050565b60008060008060008060008060006102808a8c031215611c7657600080fd5b6000611c848c828d01611bb9565b9950506040611c958c828d01611bb9565b9850506080611ca68c828d01611acd565b975050610100611cb88c828d01611bb9565b965050610140611cca8c828d01611bb9565b955050610180611cdc8c828d01611bb9565b9450506101c0611cee8c828d01611bb9565b935050610200611d008c828d01611bb9565b925050610240611d128c828d01611bb9565b9150509295985092959850929598565b600060208284031215611d3457600080fd5b6000611d4284828501611c2f565b91505092915050565b60008060408385031215611d5e57600080fd5b6000611d6c85828601611c2f565b9250506020611d7d85828601611c43565b9150509250929050565b60008060008060008060008060008060006102c08c8e031215611da957600080fd5b6000611db78e828f01611c43565b9b50506020611dc88e828f01611c43565b9a50506040611dd98e828f01611bb9565b9950506080611dea8e828f01611bb9565b98505060c0611dfb8e828f01611acd565b975050610140611e0d8e828f01611bb9565b965050610180611e1f8e828f01611bb9565b9550506101c0611e318e828f01611bb9565b945050610200611e438e828f01611bb9565b935050610240611e558e828f01611bb9565b925050610280611e678e828f01611bb9565b9150509295989b509295989b9093969950565b611e838161220e565b82525050565b6000602282527f53656e646572206d757374206e6f7420626520657175616c207265636965766560208301527f72210000000000000000000000000000000000000000000000000000000000006040830152606082019050919050565b6000601e82527f496e7075742076616c75652067726561746572207468616e207a65726f2100006020830152604082019050919050565b6000602182527f446f6e2774206861766520656e6f7567682062616c616e636520746f2073656e60208301527f64000000000000000000000000000000000000000000000000000000000000006040830152606082019050919050565b6000601d82527f416d6f756e74206d7573742062652067726561746572207468616e20300000006020830152604082019050919050565b6000601c82527f42616c616e636520736574746564207375636365737366756c6c7921000000006020830152604082019050919050565b6000600d82527f53656e74207375636365737321000000000000000000000000000000000000006020830152604082019050919050565b6000601182527f546f6b656e732047656e657261746564210000000000000000000000000000006020830152604082019050919050565b61205f8161221a565b82525050565b600060208201905061207a6000830184611e7a565b92915050565b6000602082019050818103600083015261209981611e89565b9050919050565b600060208201905081810360008301526120b981611ee6565b9050919050565b600060208201905081810360008301526120d981611f1d565b9050919050565b600060208201905081810360008301526120f981611f7a565b9050919050565b6000602082019050818103600083015261211981611fb1565b9050919050565b6000602082019050818103600083015261213981611fe8565b9050919050565b600060208201905081810360008301526121598161201f565b9050919050565b60006020820190506121756000830184612056565b92915050565b6000604051905081810181811067ffffffffffffffff8211171561219e57600080fd5b8060405250919050565b600067ffffffffffffffff8211156121bf57600080fd5b602082029050919050565b600067ffffffffffffffff8211156121e157600080fd5b602082029050919050565b600067ffffffffffffffff82111561220357600080fd5b602082029050919050565b60008115159050919050565b6000819050919050565b6000819050919050565b60008190509190505600a265627a7a723058203e4a6ee88809d669c93a361542dfea4ad97cb0a8be4da8ba8edee012ea176ad86c6578706572696d656e74616cf50037",
  "source": "pragma solidity ^0.4.16;\npragma experimental ABIEncoderV2;\n\nimport './Verifier.sol';\n\ncontract HiddenToken is Verifier{\n\n    //Constructor initially gives money to addresses\n    // uint amountEach = amount / members.length;\n    // balances[members[i]] = amountEach;   \n\n    mapping (uint => bytes32) addressMap;\n    mapping (bytes32 => uint) balances;\n\n    constructor(bytes32[] members,uint amount) public{\n        //     \n        setBalance(members[0], amount);\n        for(uint i = 0;i < members.length;i++){\n            addressMap[i] = members[i];\n        }\n    }\n\n    //       role = Emission \n    function generateTokens(bytes32 userAddress, uint amount) public returns(uint){\n        emit SendEvent(\"Tokens Generated!\");\n        require(amount > 0, \"Amount must be greater than 0\");\n        balances[userAddress] += amount;\n        return balances[userAddress];\n    }\n\n    //    \n    function getBalance(bytes32 userAddress) public view returns (uint){\n        return balances[userAddress];\n    }\n\n    //   role = Emission \n    function setBalance(bytes32 userAddress, uint amount) public returns(uint){\n        emit SendEvent(\"Balance setted successfully!\");\n        require(amount > 0, \"Amount must be greater than 0\");\n        balances[userAddress] = amount;\n        return balances[userAddress];\n    }\n\n    modifier proveOwnership(\n            uint[2] a,\n            uint[2] a_p,\n            uint[2][2] b,\n            uint[2] b_p,\n            uint[2] c,\n            uint[2] c_p,\n            uint[2] h,\n            uint[2] k,\n            uint[2] input){\n                require(verifyTx(a, a_p, b, b_p, c, c_p, h, k, input) == true);\n                _;\n            }\n\n    event SendEvent(string s);\n\n    function sendToken(uint to,uint amount,\n            uint[2] a,\n            uint[2] a_p,\n            uint[2][2] b,\n            uint[2] b_p,\n            uint[2] c,\n            uint[2] c_p,\n            uint[2] h,\n            uint[2] k,\n            uint[2] input) public returns (bool){\n                emit SendEvent(\"Sent success!\");\n                // Zk-snark verification\n                require(verifyTx(a, a_p, b, b_p, c, c_p, h, k, input) == true);\n                bytes32 fromAddress = addressMap[input[0]];\n                bytes32 toAddress = addressMap[to];\n                require(input[0] != to, \"Sender must not be equal reciever!\");\n                require(amount > 0,\"Input value greater than zero!\");\n                require((balances[fromAddress] - amount) >= 0,\"Don't have enough balance to send\");\n\n                balances[fromAddress] -= amount;\n                balances[toAddress] += amount;\n                return true;\n            }\n    \n}\n    ",
  "sourcePath": "/home/valbert/Diploma/ZKPtransaction/contracts/HiddenToken.sol",
  "compiler": {
    "name": "solc",
    "version": "0.4.26+commit.4563c3fc.Emscripten.clang"
  },
  "schemaVersion": "3.4.1",
  "updatedAt": "2021-06-07T14:40:37.081Z",
  "devdoc": {
    "methods": {}
  },
  "userdoc": {
    "methods": {}
  }
}